{
  "_format": "hh-sol-artifact-1",
  "contractName": "CertificateRegistry",
  "sourceName": "contracts/CertificateRegistry.sol",
  "abi": [
    {
      "anonymous": false,
      "inputs": [
        {
          "indexed": true,
          "internalType": "bytes32",
          "name": "certId",
          "type": "bytes32"
        },
        {
          "indexed": false,
          "internalType": "bytes32",
          "name": "hash",
          "type": "bytes32"
        },
        {
          "indexed": false,
          "internalType": "address",
          "name": "issuer",
          "type": "address"
        }
      ],
      "name": "CertificateRegistered",
      "type": "event"
    },
    {
      "anonymous": false,
      "inputs": [
        {
          "indexed": true,
          "internalType": "bytes32",
          "name": "certId",
          "type": "bytes32"
        },
        {
          "indexed": false,
          "internalType": "address",
          "name": "revoker",
          "type": "address"
        }
      ],
      "name": "CertificateRevoked",
      "type": "event"
    },
    {
      "inputs": [
        {
          "internalType": "bytes32",
          "name": "",
          "type": "bytes32"
        }
      ],
      "name": "certificateHashes",
      "outputs": [
        {
          "internalType": "bytes32",
          "name": "",
          "type": "bytes32"
        }
      ],
      "stateMutability": "view",
      "type": "function"
    },
    {
      "inputs": [
        {
          "internalType": "bytes32",
          "name": "",
          "type": "bytes32"
        }
      ],
      "name": "issuers",
      "outputs": [
        {
          "internalType": "address",
          "name": "",
          "type": "address"
        }
      ],
      "stateMutability": "view",
      "type": "function"
    },
    {
      "inputs": [
        {
          "internalType": "bytes32",
          "name": "certId",
          "type": "bytes32"
        },
        {
          "internalType": "bytes32",
          "name": "hash",
          "type": "bytes32"
        }
      ],
      "name": "registerCertificate",
      "outputs": [],
      "stateMutability": "nonpayable",
      "type": "function"
    },
    {
      "inputs": [
        {
          "internalType": "bytes32",
          "name": "certId",
          "type": "bytes32"
        }
      ],
      "name": "revokeCertificate",
      "outputs": [],
      "stateMutability": "nonpayable",
      "type": "function"
    },
    {
      "inputs": [
        {
          "internalType": "bytes32",
          "name": "certId",
          "type": "bytes32"
        },
        {
          "internalType": "bytes32",
          "name": "hash",
          "type": "bytes32"
        }
      ],
      "name": "verifyCertificate",
      "outputs": [
        {
          "internalType": "bool",
          "name": "isValid",
          "type": "bool"
        }
      ],
      "stateMutability": "view",
      "type": "function"
    }
  ],
  "bytecode": "0x608060405234801561001057600080fd5b5061079e806100206000396000f3fe608060405234801561001057600080fd5b50600436106100575760003560e01c80631f75435d1461005c578063bedda47e1461008c578063c53a4413146100bc578063c6cbc52a146100ec578063ccf4a58b14610108575b600080fd5b61007660048036038101906100719190610455565b610124565b60405161008391906104b0565b60405180910390f35b6100a660048036038101906100a191906104cb565b610143565b6040516100b39190610507565b60405180910390f35b6100d660048036038101906100d191906104cb565b61015b565b6040516100e39190610563565b60405180910390f35b610106600480360381019061010191906104cb565b61018e565b005b610122600480360381019061011d9190610455565b6102d7565b005b6000816000808581526020019081526020016000205414905092915050565b60006020528060005260406000206000915090505481565b60016020528060005260406000206000915054906101000a900473ffffffffffffffffffffffffffffffffffffffff1681565b6000801b60008083815260200190815260200160002054036101e5576040517f08c379a00000000000000000000000000000000000000000000000000000000081526004016101dc906105db565b60405180910390fd5b3373ffffffffffffffffffffffffffffffffffffffff166001600083815260200190815260200160002060009054906101000a900473ffffffffffffffffffffffffffffffffffffffff1673ffffffffffffffffffffffffffffffffffffffff1614610286576040517f08c379a000000000000000000000000000000000000000000000000000000000815260040161027d90610647565b60405180910390fd5b60008082815260200190815260200160002060009055807f1dbd7f0554a6447214abb6405781d5ee119037a7024fcb7fffd542c3c12cd776336040516102cc9190610563565b60405180910390a250565b6000801b600080848152602001908152602001600020541461032e576040517f08c379a0000000000000000000000000000000000000000000000000000000008152600401610325906106b3565b60405180910390fd5b6000801b8103610373576040517f08c379a000000000000000000000000000000000000000000000000000000000815260040161036a9061071f565b60405180910390fd5b8060008084815260200190815260200160002081905550336001600084815260200190815260200160002060006101000a81548173ffffffffffffffffffffffffffffffffffffffff021916908373ffffffffffffffffffffffffffffffffffffffff160217905550817f33654b752286e5bd888f2425062fdda8fa9f402b67e3e91eb3a4524eed1cd5c9823360405161040e92919061073f565b60405180910390a25050565b600080fd5b6000819050919050565b6104328161041f565b811461043d57600080fd5b50565b60008135905061044f81610429565b92915050565b6000806040838503121561046c5761046b61041a565b5b600061047a85828601610440565b925050602061048b85828601610440565b9150509250929050565b60008115159050919050565b6104aa81610495565b82525050565b60006020820190506104c560008301846104a1565b92915050565b6000602082840312156104e1576104e061041a565b5b60006104ef84828501610440565b91505092915050565b6105018161041f565b82525050565b600060208201905061051c60008301846104f8565b92915050565b600073ffffffffffffffffffffffffffffffffffffffff82169050919050565b600061054d82610522565b9050919050565b61055d81610542565b82525050565b60006020820190506105786000830184610554565b92915050565b600082825260208201905092915050565b7f4365727469666963617465206e6f7420666f756e640000000000000000000000600082015250565b60006105c560158361057e565b91506105d08261058f565b602082019050919050565b600060208201905081810360008301526105f4816105b8565b9050919050565b7f4f6e6c79206973737565722063616e207265766f6b6500000000000000000000600082015250565b600061063160168361057e565b915061063c826105fb565b602082019050919050565b6000602082019050818103600083015261066081610624565b9050919050565b7f436572746966696361746520616c726561647920726567697374657265640000600082015250565b600061069d601e8361057e565b91506106a882610667565b602082019050919050565b600060208201905081810360008301526106cc81610690565b9050919050565b7f486173682063616e6e6f74206265207a65726f00000000000000000000000000600082015250565b600061070960138361057e565b9150610714826106d3565b602082019050919050565b60006020820190508181036000830152610738816106fc565b9050919050565b600060408201905061075460008301856104f8565b6107616020830184610554565b939250505056fea2646970667358221220628dbcc94803ed81ff924f167acf86d1541a80e81a944d4bf48a3e92a785e9c864736f6c63430008180033",
  "linkReferences": {},
  "deployedLinkReferences": {}
}